:100000000C9462000C94BC0F0C94950F0C948A0015
:100010000C948A000C948A000C948A000C948A0038
:100020000C948A000C948A000C948A000C948A0028
:100030000C948A000C945A110C948A000C948A0037
:100040000C944B0F0C948A000C9409100C94E30F41
:100050000C948A000C948A000C948A000C948A00F8
:100060000C943B100C948A00000000002400270030
:100070002A0000000000250028002B0000000000DE
:1000800023002600290004040404040404040202DA
:100090000202020203030303030301020408102007
:1000A0004080010204081020010204081020000012
:1000B0000008000201000003040700000000000027
:1000C0000000811111241FBECFEFD8E0DEBFCDBFED
:1000D00012E0A0E0B1E0E2E3F8E302C005900D9287
:1000E000A23EB107D9F725E0A2EEB2E001C01D9211
:1000F000AE32B207E1F710E0C2E6D0E004C02197CB
:10010000FE010E94D11AC136D107C9F70E943612EA
:100110000C94171C0C940000E8ECF4E0119284E0BD
:10012000EA3DF807D9F71092DA041092C004109251
:10013000C1041092C7041092DB041092C504089504
:100140002091F2043091F304D901B595A795A051FF
:10015000BB4FE091F004F091F10420FF08C02D9115
:100160003C911197E20FF31F0190F081E02D682F71
:10017000CD010994833081F028F4813099F08230E8
:10018000A9F008958730A9F08830C9F08430B1F41F
:10019000809180008F7D03C0809180008F77809355
:1001A0008000089584B58F7784BD089584B58F7DD0
:1001B000FBCF8091B0008F778093B000089580913D
:1001C000B0008F7DF9CFCF93DF93282F30E0F90176
:1001D000E255FF4F8491F901E656FF4FD491F901A2
:1001E000EA57FF4FC491CC23A1F081110E94BA00BD
:1001F000EC2FF0E0EE0FFF1FE458FF4FA591B491F4
:10020000EC91ED2381E090E009F480E0DF91CF9163
:10021000089580E090E0FACF1F93CF93DF93282FCB
:1002200030E0F901E255FF4F8491F901E656FF4FA6
:10023000D491F901EA57FF4FC491CC23A9F0162FAE
:1002400081110E94BA00EC2FF0E0EE0FFF1FEE5874
:10025000FF4FA591B4918FB7F894EC91111108C09C
:10026000D095DE23DC938FBFDF91CF911F9108954E
:10027000DE2BF8CFCF93DF9390E0FC01E656FF4FE3
:1002800024918A579F4FFC0184918823D1F090E0FC
:10029000880F991FFC01E859FF4FA591B491FC010B
:1002A000EE58FF4FC591D49161110EC09FB7F894DD
:1002B0008C91E22FE0958E238C932881E223E883B2
:1002C0009FBFDF91CF9108958FB7F894EC91E22B07
:1002D000EC938FBFF6CF8230910538F0880F991FCD
:1002E000880F991F05970197F1F708953FB7F89484
:1002F0008091A9039091AA03A091AB03B091AC03A4
:1003000026B5A89B05C02F3F19F00196A11DB11D70
:100310003FBFBA2FA92F982F8827BC01CD01620FAC
:10032000711D811D911D42E0660F771F881F991F67
:100330004A95D1F708958F929F92AF92BF92CF9234
:10034000DF92EF92FF924B015C010E9476016B01FC
:100350007C010E9476016C197D098E099F09683E17
:10036000734081059105A8F321E0821A9108A10844
:10037000B10888EEC80E83E0D81EE11CF11C811480
:100380009104A104B10429F7FF90EF90DF90CF9082
:10039000BF90AF909F908F9008952FB7F894609181
:1003A000A5037091A6038091A7039091A8032FBF86
:1003B000089581E08093990380E00C94A00081E08F
:1003C000809398030C94A0000895E0919103F0911C
:1003D0009203309729F010928C0310928B030994AA
:1003E0000895CF93DF93AC01E0918F03F0919003D8
:1003F0003097F1F090918E0380918D039817C0F0A3
:1004000090E0292F30E02617370754F4D901A9507E
:10041000BD4F240F351FE90128812C939F5FF1CF39
:1004200010928E0360938D03CB01DF91CF910994DD
:10043000DF91CF9108950895AF92BF92CF92DF924E
:10044000EF92FF920F931F93CF93DF936C017B0189
:100450008B01040F151FEB015E01AE18BF08C0171A
:10046000D10759F06991D601ED91FC910190F0818D
:10047000E02DC6010995892B79F7C501DF91CF9150
:100480001F910F91FF90EF90DF90CF90BF90AF90B2
:100490000895FC01538D448D252F30E0842F90E08A
:1004A000821B930B541710F0CF960895019708956F
:1004B000FC01918D828D981761F0A28DAE0FBF2F38
:1004C000B11D5D968C91928D9F5F9F73928F90E08E
:1004D00008958FEF9FEF0895FC01918D828D9817FD
:1004E00031F0828DE80FF11D858D90E008958FEF3A
:1004F0009FEF0895FC01918D228D892F90E0805C03
:100500009F4F821B91098F73992708958DEA93E07D
:100510000E947A0221E0892B09F420E0822F0895BD
:1005200080E090E0892B29F00E94860281110C94D2
:1005300000000895FC01A48DA80FB92FB11DA35A86
:10054000BF4F2C91848D90E001968F739927848FF3
:10055000A689B7892C93A089B1898C918370806416
:100560008C93938D848D981306C00288F389E02DB7
:1005700080818F7D80830895EF92FF920F931F9368
:10058000CF93DF93EC0181E0888F9B8D8C8D981346
:100590001AC0E889F989808185FF15C09FB7F89452
:1005A000EE89FF896083E889F9898081837080649E
:1005B00080839FBF81E090E0DF91CF911F910F91E9
:1005C000FF90EF900895F62E0B8D10E00F5F1F4FF8
:1005D0000F731127E02E8C8D8E110CC00FB607FC07
:1005E000FACFE889F989808185FFF5CFCE010E9495
:1005F0009A02F1CFEB8DEC0FFD2FF11DE35AFF4F67
:10060000F0829FB7F8940B8FEA89FB898081806222
:10061000CFCFCF93DF93EC01888D8823B9F0AA89DF
:10062000BB89E889F9898C9185FD03C0808186FDAD
:100630000DC00FB607FCF7CF8C9185FFF2CF8081FC
:1006400085FFEDCFCE010E949A02E9CFDF91CF91D5
:10065000089520913D03260F3327331F21323105A2
:10066000ECF420916103FC0190E080E0243069F01B
:1006700082E00895A0913D032191AC01435E5C4F5F
:10068000A40FB52FB11D2C930196861798F3809176
:100690003D03680F60933D0380E0089581E0089575
:1006A0001092610381E0809363031092620361E022
:1006B00082E10E940C0161E083E10E940C01E9EB00
:1006C000F0E080818E7F808380818D7F808388E4CD
:1006D0008093B80085E48093BC000895E0918E0378
:1006E00080918D03E81730F4F0E0E950FD4F8081F0
:1006F00090E008958FEF9FEF089590918E03809181
:100700008D032FEF3FEF981748F4E92FF0E0E95001
:10071000FD4F208130E09F5F90938E03C9010895C3
:1007200080918D0390918E03891B990B0895CF932F
:10073000DF93CB01EA01642F0E942903CE01DF91F0
:10074000CF910895CF93DF931F92CDB7DEB7698322
:1007500061E0CE0101960E94290381E090E00F90B4
:10076000DF91CF91089590E080E008951F93CF939B
:10077000DF93EC01162F8AAD882319F085E00E94E3
:100780000C011FA790E080E0112311F082E090E0BF
:10079000998B888B112321F01A8A1B8A1C8A1D8A47
:1007A000DF91CF911F9108951F93CF93DF93EC01B9
:1007B000162F6A8D612788E00E940C0181E090E08D
:1007C000112311F08FEF9FEF98A78FA3DF91CF91A7
:1007D0001F9108958F929F92AF92BF92CF92DF9216
:1007E000EF92FF920F931F93CF93DF93EC014A0197
:1007F0005B016801790119A660E089E00E940C01A3
:100800001EA618AA19AA60E0CE010E94B6038E891E
:100810009F89A88DB98D88159905AA05BB0579F41E
:10082000198A188ADF91CF911F910F91FF90EF9055
:10083000DF90CF90BF90AF909F908F9008958E895A
:100840009F89A88DB98D88159905AA05BB05ACF5BA
:1008500081E090E098A78FA360E0CE010E94D403CE
:10086000F694E794D794C79461E0CE010E94B60352
:100870008AA69BA6ACA6BDA61BAA1AAA20ECC216E5
:1008800021EED20624EEE206F10408F07FC0D70183
:10089000C60123E0880F991FAA1FBB1F2A95D1F715
:1008A000009721E0A207B105B8F421E02093950359
:1008B00090939403809393031BC08E899F89A88D86
:1008C000B98D88169906AA06BB0654F68FEF9FEFDE
:1008D00098A78FA361E0C1CF009728E0A207B105D8
:1008E00010F582E080939503D0929403C092930315
:1008F0008091930390919403909387008093860056
:10090000809195038061809381001DAA1CAA10929A
:10091000810010928500109284008091950380617F
:10092000809381007FCF009720E4A207B10558F49F
:1009300023E02093950306E0B695A79597958795B4
:100940000A95D1F7B5CF0097A10521E0B20740F491
:1009500024E020939503892F9A2FAB2FBB27A8CF94
:100960000097A10524E0B20758F425E020939503F1
:10097000FAE0B695A79597958795FA95D1F798CF10
:1009800085E0809395038FEF9FEF92CFC701B6016B
:1009900020EC31EE44EE50E00E949D1ACA01B901EC
:1009A0000E94891B20E030E040E05FE30E94E71AEC
:1009B0000E94531B6F5F7F4F7DAB6CAB9B0150E080
:1009C00040E0C701B6010E949D1ACA01B9010E9408
:1009D000891B20E030E040E05FE30E94E71A0E94BC
:1009E000531BAB01BC01DC01CA01E3E0880F991F76
:1009F000AA1FBB1FEA95D1F7009721E0A207B10516
:100A000040F421E020939503909394038093930303
:100A10000DC0009728E0A207B105B0F482E08093F2
:100A200095037F71509394034093930380919303B4
:100A30009091940390938700809386008091950312
:100A400080618093810063CF009720E4A207B10505
:100A500058F423E02093950346E0B695A795979523
:100A600087954A95D1F7D0CF0097A10521E0B2072D
:100A700040F424E020939503892F9A2FAB2FBB27B6
:100A8000C3CF0097A10524E0B20758F425E02093D6
:100A900095032AE0B695A795979587952A95D1F75E
:100AA000B3CF85E0809395038FEF9FEFADCF0F938A
:100AB0001F93CF93DF931092B7040091B804109264
:100AC000B8041092B9041092BA041092BB04D0E09A
:100AD000C0E010E0C017D10750F4FE01EA56FB4F0A
:100AE00060818AE494E00E94A2032196F3CF809172
:100AF0002C05811116C080911F05882391F08091EB
:100B00002B05882371F081E080932C0510928100E1
:100B100010928500109284008091950380618093EB
:100B20008100DF91CF911F910F91089581E0809313
:100B30009B0380918D0390918E03891B990B18164E
:100B400019067CF48AE494E00E947D03E091B604E7
:100B500091E09E0F9093B604F0E0EA5AFB4F808339
:100B6000E8CF089582E00E94E30021E0892B09F09C
:100B700020E0822F08958F929F92AF92BF92CF92E2
:100B8000DF92EF92FF920F931F93CF93DF93EC01CD
:100B90006A017B01F694E794D794C79481E08EA70D
:100BA0001FA618AA19AA21E030E0398B288B6DAD59
:100BB0006827CE010E94D4030E94B205882369F100
:100BC0006DADCE010E94D40310E000E0C801B0E09A
:100BD000A0E04BA15CA16DA17EA184179507A6079B
:100BE000B707A8F461E089E00E940C01C6010E94E9
:100BF0006B0160E089E00E940C01C6010E946B015C
:100C000088899989892BA1F10F5F1F4FDFCF6DADC7
:100C100081E06827CE010E94D403812C912C5401DD
:100C20000E94B205811134C061E089E00E940C018C
:100C3000C6010E946B0160E089E00E940C01C601C0
:100C40000E946B018FEF881A980AA80AB80A8B8D48
:100C50009C8DAD8DBE8D88159905AA05BB05A8F0A4
:100C600088899989019789F488899989892BC1F69E
:100C7000DF91CF911F910F91FF90EF90DF90CF9078
:100C8000BF90AF909F908F90089581E088ABF0CF98
:100C900010E000E0C801B0E0A0E04F8D58A169A1CC
:100CA0007AA184179507A607B707A8F461E089E041
:100CB0000E940C01C6010E946B0160E089E00E9465
:100CC0000C01C6010E946B0188899989892B81F2E8
:100CD0000F5F1F4FDFCF1E8A1F8A188E198E6DADD2
:100CE000CE010E94D4031E8A1F8A188E198E4E8947
:100CF0005F89688D798D8BA19CA1092E000CAA0BB0
:100D0000BB0B481759076A077B07FCF461E089E0D1
:100D10000E940C01C6010E946B0160E089E00E9404
:100D20000C01C6010E946B0188899989892B09F4FD
:100D30009FCF8E899F89A88DB98D0196A11DB11D68
:100D40008E8B9F8BA88FB98FD2CF198A188A90CF9C
:100D50008F929F92AF92BF92CF92DF92EF92FF92CB
:100D60000F931F93CF93DF93EC016A017B01F694FD
:100D7000E794D794C79481E08EA71FA618AA19AA52
:100D800081E090E0998B888B61E0CE010E94D403D2
:100D90002F8D38A149A15AA1A3E0B0E00E94C61A44
:100DA0004B015C0181149104A104B10461F46B8DC9
:100DB0007C8D8D8D9E8D2AE030E040E050E00E94D9
:100DC0009D1A49015A010E94B205882331F160E061
:100DD000CE010E94D40310E000E0C801B0E0A0E022
:100DE00061E088159905AA05BB05A0F489E00E9479
:100DF0000C01C6010E946B0160E089E00E940C01B9
:100E0000C6010E946B0188899989892B99F10F5F2E
:100E10001F4FE3CFCE010E94D403812C912C5401AB
:100E20000E94B205811133C088899989892B11F1FB
:100E300061E089E00E940C01C6010E946B0160E044
:100E400089E00E940C01C6010E946B018FEF881A95
:100E5000980AA80AB80A8B8D9C8DAD8DBE8D881519
:100E60009905AA05BB0520F0888999890197C1F2E7
:100E700081E088ABDF91CF911F910F91FF90EF90B0
:100E8000DF90CF90BF90AF909F908F90089510E02B
:100E900000E0C801B0E0A0E04F8D58A169A17AA19F
:100EA00084179507A607B707A8F488899989892B1D
:100EB00009F361E089E00E940C01C6010E946B0108
:100EC00060E089E00E940C01C6010E946B010F5F87
:100ED0001F4FDFCF1E8A1F8A188E198E198A188A13
:100EE0001FA660E0CE01DF91CF911F910F91FF907F
:100EF000EF90DF90CF90BF90AF909F908F900C9429
:100F0000D4038F929F92AF92BF92CF92DF92EF92D3
:100F1000FF920F931F93CF93DF93EC016A017B0144
:100F2000F694E794D794C79481E08EA71FA618AAD9
:100F300019AA81E090E0998B888B61E0CE010E9434
:100F4000D4030E94B205882359F160E0CE010E94CB
:100F5000D40310E000E0C801B0E0A0E04BA15CA128
:100F60006DA17EA184179507A607B707A8F461E0D5
:100F700089E00E940C01C6010E946B0160E089E0DB
:100F80000E940C01C6010E946B0188899989892BF6
:100F900091F10F5F1F4FDFCF61E0CE010E94D403BC
:100FA000812C912C54010E94B205811134C061E062
:100FB00089E00E940C01C6010E946B0160E089E09B
:100FC0000E940C01C6010E946B018FEF881A980ADB
:100FD000A80AB80A8B8D9C8DAD8DBE8D881599059C
:100FE000AA05BB05A8F088899989019789F48889A1
:100FF0009989892BC1F6DF91CF911F910F91FF90B5
:10100000EF90DF90CF90BF90AF909F908F9008951A
:1010100081E088ABF0CF10E000E0C801B0E0A0E0D4
:101020004F8D58A169A17AA184179507A607B70724
:10103000A8F461E089E00E940C01C6010E946B01E6
:1010400060E089E00E940C01C6010E946B01888962
:101050009989892B81F20F5F1F4FDFCF1E8A1F8A6C
:10106000188E198E60E0CE010E94D4031E8A1F8A5A
:10107000188E198E4E895F89688D798D8BA19CA100
:10108000092E000CAA0BBB0B481759076A077B07F0
:10109000FCF461E089E00E940C01C6010E946B0132
:1010A00060E089E00E940C01C6010E946B01888902
:1010B0009989892B09F49FCF8E899F89A88DB98D35
:1010C0000196A11DB11D8E8B9F8BA88FB98FD2CF9A
:1010D000198A188A90CF8F929F92AF92BF92CF9227
:1010E000DF92EF92FF920F931F93CF93DF93EC0168
:1010F0006A017B01F694E794D794C79481E08EA7A8
:101100001FA618AA19AA81E090E0998B888B61E04C
:10111000CE010E94D4030E94B2058823E1F160E071
:10112000CE010E94D4038BA19CA1ADA1BEA10097CA
:10113000A105B10509F1B695A79597958795B12CAD
:10114000A12C082F10E061E0A016B10608F589E097
:101150000E940C01C6010E946B0160E089E00E94C0
:101160000C01C6010E946B0188899989892BF1F1D4
:101170008FEFA81AB80AE7CF8B8D9C8DAD8DBE8DF1
:1011800022E0B695A795979587952A95D1F7D7CF61
:10119000CE010E94D403812C912C54010E94B205EF
:1011A000811134C061E089E00E940C01C6010E94F7
:1011B0006B0160E089E00E940C01C6010E946B0196
:1011C0008FEF881A980AA80AB80A8B8D9C8DAD8D6E
:1011D000BE8D88159905AA05BB05A8F0888999894F
:1011E000019789F488899989892BC1F6DF91CF917C
:1011F0001F910F91FF90EF90DF90CF90BF90AF9035
:101200009F908F90089581E088ABF0CF0AE010E0C6
:101210000E94B2058823B9F388899989892B31F313
:1012200001501109A9F710E000E0C801B0E0A0E00A
:101230004F8D58A169A17AA184179507A607B70712
:10124000A8F461E089E00E940C01C6010E946B01D4
:1012500060E089E00E940C01C6010E946B01888950
:101260009989892B19F20F5F1F4FDFCF1E8A1F8AC2
:10127000188E198E60E0CE010E94D4031E8A1F8A48
:10128000188E198E4E895F89688D798D8BA19CA1EE
:10129000092E000CAA0BBB0B481759076A077B07DE
:1012A000FCF461E089E00E940C01C6010E946B0120
:1012B00060E089E00E940C01C6010E946B018889F0
:1012C0009989892B09F492CF8E899F89A88DB98D30
:1012D0000196A11DB11D8E8B9F8BA88FB98FD2CF88
:1012E000198A188A83CF8F929F92AF92BF92CF9222
:1012F000DF92EF92FF920F931F93CF93DF93EC0156
:101300006A017B01F694E794D794C79481E08EA795
:101310001FA618AA19AA81E090E0998B888B61E03A
:10132000CE010E94D4038B8C9C8CAD8CBE8C93E040
:10133000B694A794979487949A95D1F70E94B20592
:10134000882331F160E0CE010E94D40310E000E078
:10135000C801B0E0A0E061E088159905AA05BB05C9
:10136000A0F489E00E940C01C6010E946B0160E0BC
:1013700089E00E940C01C6010E946B01888999894D
:10138000892B71F10F5F1F4FE3CFCE010E94D40371
:101390000E94B205811134C061E089E00E940C0115
:1013A000C6010E946B0160E089E00E940C01C60149
:1013B0000E946B018FEF881A980AA80AB80A8B8DD1
:1013C0009C8DAD8DBE8D88159905AA05BB05A8F02D
:1013D00088899989019789F488899989892BC1F627
:1013E000DF91CF911F910F91FF90EF90DF90CF9001
:1013F000BF90AF909F908F90089581E088ABF0CF21
:10140000B12CA12CC501B0E0A0E04F8D58A169A17D
:101410007AA184179507A607B707B0F461E089E0C1
:101420000E940C01C6010E946B0160E089E00E94ED
:101430000C01C6010E946B0188899989892B81F270
:101440008FEFA81AB80ADECF1E8A1F8A188E198E4F
:1014500060E0CE010E94D4031E8A1F8A188E198E66
:101460004E895F89688D798D8BA19CA1092E000C16
:10147000AA0BBB0B481759076A077B07FCF461E00E
:1014800089E00E940C01C6010E946B0160E089E0C6
:101490000E940C01C6010E946B0188899989892BE1
:1014A00009F49ECF8E899F89A88DB98D0196A11DC3
:1014B000B11D8E8B9F8BA88FB98FD2CF198A188AB6
:1014C0008FCF2091FE043091FF04C9019595879537
:1014D00080519B4FE091FC04F091FD0420FF08C077
:1014E000DC012D913C91E20FF31F0190F081E02D82
:1014F0000994CF93C82F61E068278EE00E940C0109
:10150000C11102C01092B604CF9108954F925F921C
:101510006F927F928F929F92AF92BF92CF92DF9203
:10152000EF92FF920F931F93CF93DF93EC016A0129
:101530007B0119A648015901B694A7949794879402
:1015400060E089E00E940C0181E025EF821621E035
:101550009206A104B10408F480E08AAF1EA61FA67B
:1015600018AA19AAAAE0B0E0A50194010E94C61A1F
:101570002B013C0103EE12E0812C912C5401839449
:10158000C301B201A50194010E949D1AF8012193A3
:1015900031938F01FFEF8F1A9F0AAF0ABF0A2BE02A
:1015A00082169104A104B10459F760E0CE010E94B3
:1015B000B6038E899F89A88DB98D8C159D05AE05C2
:1015C000BF0599F4198A188ADF91CF911F910F9165
:1015D000FF90EF90DF90CF90BF90AF909F908F9053
:1015E0007F906F905F904F9008958E899F89A88D0E
:1015F000B98D8C159D05AE05BF050CF07BC08E899D
:101600009F89A88DB98DA7019601281B390B4A0B1C
:101610005B0BDA01C90121E030E038A72FA3CAA68D
:10162000DBA6ECA6FDA6AC01BD014F5754406109F5
:10163000710940930001509301016093020170937E
:10164000030199AF88AF68A5661F6627661FCE01A4
:101650000E94D4032091E3023091E402C901B0E07A
:10166000A0E043E0880F991FAA1FBB1F4A95D1F73E
:10167000009741E0A407B10508F051C021E0209394
:101680009503909394038093930380919303909197
:1016900094039093870080938600809195038061E6
:1016A000809381001FAA82E090E0998B888B8AAD9D
:1016B0008823E9F110928100109285001092840035
:1016C000809195038061809381001BAE61E0CE0123
:1016D000DF91CF911F910F91FF90EF90DF90CF900E
:1016E000BF90AF909F908F907F906F905F904F9042
:1016F0000C94B6038E899F89A88DB98DC816D9061A
:10170000EA06FB060CF09FCF8E899F89A88DB98DC4
:101710008C199D09AE09BF092FEF3FEF7ECF82E004
:10172000809395033093940320939303AECF81E08D
:101730008BAF1CAECBCFFC01238185818823C1F008
:1017400030E0A901559547954575220F331F2A7A38
:10175000242B422F50E09A013595279535952795F2
:101760002373440F551F440F551F4C7C242B229587
:10177000828182270895FC0187819085A185B285A9
:101780000196A11DB11D87839087A187B2878681AD
:10179000811108C081E0868381818383178210864E
:1017A0001186128684818823C1F070E0CB01959563
:1017B00087958575660F771F6A7A682B862F90E06C
:1017C000BC0175956795759567956373880F991F2B
:1017D000880F991F8C7C682B6295838168276383AF
:1017E00088E09381292F220F97FF06C090819227CE
:1017F00093838150B1F708952383FBCFFC0187E0E9
:1018000080831182128213821482158216821782BB
:101810001086118612860895EF92FF920F931F9300
:10182000CF93DF93CDB7DEB72B970FB6F894DEBF1B
:101830000FBECDBF182F062FF42EE22E81E00E949E
:10184000790ACE0101960E94FE0B81E08F838A8186
:101850008C83188619861A861B8680EB80939604E3
:101860008091BF0420E1829FC001112480939704DE
:10187000EE2029F0809197048F5F80939704FF20DA
:1018800029F0809197048E5F80939704002329F0BC
:10189000809197048C5F80939704112329F08091A5
:1018A0009704885F8093970460919604CE01019617
:1018B0000E94BB0B60919704CE0101960E94BB0B66
:1018C000CE0101960E949B0B8093980483E090E0E8
:1018D000A0E0B0E08093B8049093B904A093BA0458
:1018E000B093BB0480E00E94790A2B960FB6F8945F
:1018F000DEBF0FBECDBFDF91CF911F910F91FF9043
:10190000EF900895CF93DF93EC0188899989892B13
:1019100079F480E18093810060E0CE010E94B603FB
:1019200020E041E060E081E0DF91CF910C940C0C6D
:1019300089A591E0892789A769A589E00E940C0102
:1019400089A5882369F02CA93DA92115310569F0E5
:101950008AA99BA98217930730F401969BAB8AABA7
:10196000DF91CF9108951BAA1AAA4E895F89688DCD
:10197000798D8FA198A5092E000CAA0BBB0B840FA3
:10198000951FA61FB71F8E8B9F8BA88FB98F8A8933
:101990009B89AC89BD890196A11DB11D8A8B9B8B4A
:1019A000AC8BBD8B4E895F89688D798D8AA59BA58F
:1019B000ACA5BDA5481759076A077B0761F480E10C
:1019C0008093810060E0CE010E94B60320E040E0F9
:1019D00060E080E0A9CF4A895B896C897D898B8D25
:1019E0009C8DAD8DBE8D481759076A077B0709F09E
:1019F000B7CF80E18093810060E0CE010E94B60302
:101A000020E040E061E0E5CFFC01611116C0118AE1
:101A1000108A81E081AB87A5882379F086A58111A2
:101A20000CC0CF0120E1209381000E94B60320E08A
:101A300041E060E081E00C940C0C0895CF93DF93BB
:101A4000EC0188899989892B79F480E18093810060
:101A500060E0CE010E94B60320E041E060E081E05A
:101A60000E940C0C1BAE7CC089A591E0892789A738
:101A700069A589E00E940C0189A54E895F89688D5E
:101A8000798D882309F49CC08FA198A5092E000C9C
:101A9000AA0BBB0B840F951FA61FB71F8E8B9F8BA6
:101AA000A88FB98F8A899B89AC89BD890196A11DB0
:101AB000B11D8A8B9B8BAC8BBD8B8A899B89AC8932
:101AC000BD898F379440A105B10508F04CC08A89C3
:101AD0009B89AC89BD89F7E0B695A79597958795C1
:101AE000FA95D1F79FA99817D9F18FAB90E1909310
:101AF0008100E82FF0E0EE0FFF1FED51FD4F208138
:101B00003181C901B0E0A0E043E0880F991FAA1F0E
:101B1000BB1F4A95D1F7009741E0A407B10508F033
:101B200047C021E0209395039093940380939303FF
:101B30008091930390919403909387008093860003
:101B400080919503806180938100109281001092B2
:101B500085001092840080919503806180938100BC
:101B6000DF91CF9108954A895B896C897D89809145
:101B7000000190910101A0910201B091030184172D
:101B80009507A607B70790F44A895B896C897D8918
:101B9000481B590B6A0B7B0BE7E0769567955795C9
:101BA0004795EA95D1F788E0841B9CCF89E09ACFCE
:101BB00082E0809395033093940320939303B8CFEE
:101BC0008AA59BA5ACA5BDA5481759076A077B0741
:101BD00049F14A895B896C897D8988AD99ADB0E00E
:101BE000A0E0481759076A077B07E0F44A895B8938
:101BF0006C897D898B8D9C8DAD8DBE8D0596A11DCB
:101C0000B11D481759076A077B0708F4A9CF80E17F
:101C10008093810060E0CE010E94B60320E040E0A6
:101C200061E00AC080E18093810060E0CE010E9403
:101C3000B60320E040E060E080E00E940C0C60E031
:101C400089E00E940C010ECFFC0101900020E9F711
:101C50003197AF01481B590BBC018DEA93E00C94FE
:101C60001C028F929F92AF92BF920F931F93CF93BC
:101C7000DF93CDB7DEB7A1970FB6F894DEBF0FBEE6
:101C8000CDBF19A2423008F44AE08E010F5D1F4F0C
:101C9000842E912CB12CA12CA50194010E949D1A97
:101CA000E62FB901CA01EA30F4F4E05DD801EE9301
:101CB0008D01232B242B252B79F790E080E01097C2
:101CC00019F0CD010E94240EA1960FB6F894DEBF44
:101CD0000FBECDBFDF91CF911F910F91BF90AF90FD
:101CE0009F908F900895E95CE1CFCF92DF92EF92C1
:101CF000FF92CF93DF936B017C016DE28DEA93E05D
:101D00000E94BC02EC0166277727CB016C197D0984
:101D10008E099F094AE00E94310E8C0F9D1FDF91B2
:101D2000CF91FF90EF90DF90CF900895BC01990F75
:101D3000880B990B97FD0C94750E4AE00C94310EAC
:101D4000682F70E090E080E040E10C94310ECF937A
:101D5000DF930E94240EEC018AE591E00E94240E9C
:101D60008C0F9D1FDF91CF910895CF93DF93EC01EE
:101D70008DE591E00E94A70E19AA1FA681E08EA70B
:101D800089A921E040E061E0DF91CF910C940C0C37
:101D9000CF93DF93EC0181E791E00E94A70E19AA8F
:101DA0001FA61EA689A920E040E061E0DF91CF9147
:101DB0000C940C0CCF93DF93BC01990F880B990BFB
:101DC00097FF0CC00E94750EEC018AE591E00E941D
:101DD000240E8C0F9D1FDF91CF9108954AE00E9441
:101DE000310EF2CF0C94240ECF93DF9385ED8093C8
:101DF000BC008091190390911A03A0911B03B0912C
:101E00001C030796A11DB11D23E0B695A7959795D4
:101E100087952A95D1F72091BC0024FD03C010922C
:101E2000610336C04091190350911A0360911B035E
:101E300070911C03452B462B472B69F30097A10596
:101E4000B10541F025E32A95F1F700000197A109BA
:101E5000B109E1CF8091180391E090931703882393
:101E6000B9F0C091B800D091BA008091BC008A7BD3
:101E70008093BC0060E082E10E940C0160E083E19D
:101E80000E940C010E945003D093BA00C093B80086
:101E9000DF91CF9108951F920F920FB60F921124E8
:101EA0002F933F938F939F93AF93BF938091A503FD
:101EB0009091A603A091A703B091A8033091A40329
:101EC00023E0230F2D3758F50196A11DB11D209356
:101ED000A4038093A5039093A603A093A703B093B4
:101EE000A8038091A9039091AA03A091AB03B0919C
:101EF000AC030196A11DB11D8093A9039093AA0381
:101F0000A093AB03B093AC03BF91AF919F918F911E
:101F10003F912F910F900FBE0F901F90189526E8BC
:101F2000230F0296A11DB11DD2CF1F920F920FB6A3
:101F30000F9211242F933F934F935F936F937F934F
:101F40008F939F93AF93BF93EF93FF93E09107011C
:101F5000F09108010995FF91EF91BF91AF919F9189
:101F60008F917F916F915F914F913F912F910F9042
:101F70000FBE0F901F9018951F920F920FB60F92E1
:101F800011242F933F934F935F936F937F938F937E
:101F90009F93AF93BF93EF93FF93E0910501F0916F
:101FA00006010995FF91EF91BF91AF919F918F919C
:101FB0007F916F915F914F913F912F910F900FBE45
:101FC0000F901F9018951F920F920FB60F92112429
:101FD0002F933F934F935F936F937F938F939F9331
:101FE000AF93BF93EF93FF938DEA93E00E949A0221
:101FF000FF91EF91BF91AF919F918F917F916F91E1
:102000005F914F913F912F910F900FBE0F901F90B6
:1020100018951F920F920FB60F9211242F938F9342
:102020009F93EF93FF93E091BD03F091BE038081F6
:10203000E091C303F091C40382FD1BC090818091A5
:10204000C6038F5F8F732091C703821741F0E09121
:10205000C603F0E0E355FC4F958F8093C603FF91D4
:10206000EF919F918F912F910F900FBE0F901F9026
:1020700018958081F4CF1F920F920FB60F92112402
:102080002F933F934F935F936F937F938F939F9380
:10209000AF93BF93EF93FF938091B900887F803611
:1020A00009F44AC0F0F5883209F4A7C018F5803168
:1020B00009F49BC0B8F4882309F4F9C0883009F406
:1020C00094C0FF91EF91BF91AF919F918F917F91BC
:1020D0006F915F914F913F912F910F900FBE0F9095
:1020E0001F901895883109F488C0803251F7809389
:1020F000600314C0803409F49DC040F48033B9F308
:102100008833F9F68093600385ECB0C0803509F41C
:1021100085C0883509F496C0883499F60E94F40E7B
:10212000D0CF883909F48CC038F5883729F050F4BD
:10213000883611F0803729F683E08093610310928E
:102140005F0357C0883809F47BC0803919F08038A4
:1021500009F0B7CF80915F03803208F071C0E09141
:102160005F0381E08E0F80935F038091BB00F0E0FE
:10217000E15CFC4F80833DC0803B39F0E0F4803A65
:1021800009F479C0883A09F09CCF84E08093610318
:1021900010923E0310923D03E0918903F0918A036F
:1021A000099580913D0381110FC081E080933D032B
:1021B00010921D0309C0803C09F4A6CF883C09F4A5
:1021C000A3CF883B09F07DCFE0913E0381E08E0FE5
:1021D00080933E03F0E0E35EFC4F80818093BB0080
:1021E00090913E0380913D0329C0809186038093A6
:1021F000BB0085EC8093BC0064CF909185038091F7
:102200008403981758F5E091850381E08E0F809341
:102210008503F0E0EC59FC4F8081E9CFE091850324
:1022200081E08E0F809385038091BB00F0E0EC5934
:10223000FC4F808390918503809184039817C8F2A6
:1022400085E8D8CFE091850381E08E0F80938503E8
:102250008091BB00F0E0EC59FC4F808380916303D8
:1022600081115CCF81E08093620384EA8093BC009B
:102270001092610326CF85EC8093BC00109261031D
:1022800080915F03803230F4E0915F03F0E0E15C25
:10229000FC4F108260915F0370E0E0918703F09142
:1022A00088038FE393E0099510925F030ACF1092A1
:1022B000600334CF1F920F920FB60F9211242F9309
:1022C0003F934F935F936F937F938F939F93AF93BE
:1022D000BF93EF93FF93E0919603F09197030995D5
:1022E000FF91EF91BF91AF919F918F917F916F91EE
:1022F0005F914F913F912F910F900FBE0F901F90C4
:102300001895EF92FF921F93CF93DF93EDEAF3E0DE
:102310001382128288EE93E0A0E0B0E0848395837C
:10232000A683B7832AE331E03183208325EC30E0B4
:102330003587248724EC30E03787268720EC30E08F
:10234000318B208B21EC30E0338B228B22EC30E080
:10235000358B248B26EC30E0378B268B118E128E3A
:10236000138E148EEAE4F4E0138212828483958340
:10237000A683B7838CE491E091838083E0EFF4E05F
:10238000118A108A128A138A148A158A168A178A61
:10239000108E118E128E138E148E158E168E178E31
:1023A00010A211A212A213A214A215A216A210A684
:1023B00017A211A612A613A614A615A616A617A64E
:1023C00013AA12AA15AA14AA81E082AF13AE15AE01
:1023D00084E09DE0918380831382128285EB9EE0EE
:1023E000958384831782168288EC9EE0918780878C
:1023F0001386128684EE91E0958784871786168669
:102400001092B8041092B9041092BA041092BB044E
:102410001092BC048DEBE82E84E0F82EF7011082B8
:10242000CFEBD4E01FE018831092C10480E190E06C
:102430009093C3048093C2041092C4041092C50404
:102440001092C6041092C7041092DA041092DB04B2
:102450000E948C00F70110828FEF8093BE041883D6
:10246000DF91CF911F91FF90EF900895CF93DF936D
:10247000CDB7DEB7A7970FB6F894DEBF0FBECDBFBE
:10248000789484B5826084BD84B5816084BD85B54F
:10249000826085BD85B5816085BD80916E0081605B
:1024A00080936E0010928100809181008260809301
:1024B0008100809181008160809381008091800003
:1024C0008160809380008091B10084608093B1002E
:1024D0008091B00081608093B00080917A00846028
:1024E00080937A0080917A00826080937A00809154
:1024F0007A00816080937A0080917A00806880936E
:102500007A001092C10061E085E00E943A0160E02B
:1025100085E00E940C0161E08EE00E943A0181E0BA
:102520000E94790A60E08AE00E943A0160E081E15D
:102530000E943A0160E080E10E943A0160E08FE091
:102540000E943A0160E084E00E943A0161E087E085
:102550000E943A0160E087E00E940C0161E088E09F
:102560000E943A0160E088E00E940C0161E089E08D
:102570000E943A0160E082E00E943A0160E083E05C
:102580000E943A018AE00E94E30018E0019709F0F6
:1025900010E0105D81E10E94E300019709F0ADC0F9
:1025A00084E0180F80E10E94E300019709F0A7C0C2
:1025B00082E0180F8FE00E94E30021E0019709F00C
:1025C00020E0120F10930401E091BD03F091BE03CF
:1025D00082E08083E091B903F091BA031082E09128
:1025E000BB03F091BC0380E180831092C503E091AE
:1025F000C103F091C20386E08083E091BF03F091B4
:10260000C003808180618083E091BF03F091C003AB
:10261000808188608083E091BF03F091C003808156
:1026200080688083E091BF03F091C00380818F7D3B
:10263000808385E891E00E94A70E81E991E00E94E5
:10264000A70E8AE00E94E30021E030E0892B11F020
:1026500030E020E0C9010E94960E81E10E94E30073
:1026600021E030E0892B11F030E020E0C9010E9428
:10267000960E80E10E94E30021E030E0892B11F00A
:1026800030E020E0C9010E94960E8FE00E94E30036
:1026900021E030E0892B11F030E020E0C9010E94F8
:1026A000DA0E8AE991E00E94F20E809104010E9404
:1026B000A00E8AE591E00E94240E109104011053AF
:1026C00084E00E94E30021E0892B09F020E02093C0
:1026D000EF0484E1E9E0F1E0DE01119601900D9252
:1026E0008A95E1F71A3068F086E090E09093EE0466
:1026F0008093ED0480EF91E02AC080E052CF80E02B
:1027000058CFE12FF0E0EE0FFF1F01E010E00C0FBB
:102710001D1FE00FF11F808191819093EE04809343
:10272000ED048330910509F4E1C048F4813091054E
:1027300009F4D9C00297F1F681ED91E008C0843028
:10274000910509F4D6C00597A9F682EA91E00E94A6
:10275000A70E8091ED049091EE048330910509F469
:10276000DFC008F0C9C08130910509F423C1029788
:1027700009F4F7C01091040181E0123309F080E000
:1027800080932D058091EF04882309F42DC189EFF2
:1027900091E00E94A70EB3E04B2E512C612C712CBE
:1027A0008091EF04882309F4BBC20E94CD016CA381
:1027B0007DA38EA39FA30E94CD014091ED04509173
:1027C000EE04CA0101978530910508F0B3C19C0160
:1027D000220F331F820F931FFC01E95DFE4F8081A2
:1027E0009181A2817C010A2F10E0E8A2F9A20AA33C
:1027F0001BA3235E3E4FD9010D911C91480145302A
:10280000510509F0A0C18AE092E00E94A70E60E0A5
:1028100088E00E940C01C12CD12C760182E00E943C
:10282000E3000E94DA0E61E089E00E940C01C80119
:102830000E946B0160E089E00E940C01C8010E94C7
:102840006B0126013701B2E04B0E511C611C711C5B
:10285000E0EF4E16E9E45E06E2E06E06710408F46D
:10286000A9C182E00E94E300019709F4A3C1F3E04B
:10287000CF0ED11CE11CF11C8FE192E00E94F20E00
:102880004AE0C701B6010E94310E61E088E00E9473
:102890000C01C701B6012AE030E040E050E00E94A0
:1028A0009D1A69017A0121E0C21AD108E108F108F4
:1028B0003FEFC316D306E306F30609F444C182E0F2
:1028C0000E94E3000E94DA0E61E089E00E940C01A0
:1028D000C8010E946B0160E089E00E940C01C80100
:1028E0000E946B01E0CF81EB91E031CF82EC91E06F
:1028F0002ECF8FED91E02BCF8430910509F467C086
:10290000059709F037CF84E09DE09093F104809320
:10291000F0041092F3041092F20483E799E00CC0E3
:1029200084E09DE09093F1048093F0041092F3040E
:102930001092F2048BEB95E09093F5048093F404ED
:102940001092F7041092F6048AEE93E09093F90443
:102950008093F8041092FB041092FA0482E89CE041
:1029600020C084E09DE09093F1048093F0041092E5
:10297000F3041092F20488EA96E09093F5048093B1
:10298000F4041092F7041092F60486E89AE090930B
:10299000F9048093F8041092FB041092FA048EE17B
:1029A0009DE09093FD048093FC041092FF0410922C
:1029B000FE04E0CE84E09DE09093F1048093F00467
:1029C0001092F3041092F20481E897E0B5CF84E00E
:1029D0009DE09093F1048093F0041092F304109220
:1029E000F2048BE698E0A8CF10928E0310928D032C
:1029F00010928C0310928B030E94500385EE91E09D
:102A000090938A038093890381EF91E090938803E8
:102A100080938703110F1093BA0086E995E0909395
:102A2000900380938F0387E595E0909392038093C2
:102A300091038091ED049091EE0420E3280F209300
:102A4000BF0441E050E030E020E0F901EE0FFF1F4D
:102A5000EA5AFB4F1082FA01EA5AFB4F1082F90141
:102A6000EA56FB4F10822F5F3F4F4E5F5F4F203281
:102A7000310559F720E52093960414E0880F991F3B
:102A80001A95E1F7807F9F70806880939704CE014C
:102A900001960E94FE0BCE0101960E94FE0B6091F2
:102AA0009604CE0101960E94BB0B60919704CE0163
:102AB00001960E94BB0BCE0101960E949B0B809356
:102AC000980480EF94E09093EC048093EB0481E60B
:102AD0009AE0909397038093960381E080936F0030
:102AE00080E1809381001092800093E090939503A1
:102AF00029E03DE3309394032093930330938700C0
:102B00002093860093E190938100809381008FED64
:102B100091E09093060180930501809169008C7F7C
:102B2000826080936900E89A80E00E94790A84E0DC
:102B300092E02FCE18A219A21AA21BA288248A946E
:102B4000982CA12CB12C10E0C12CD12C760188A19D
:102B500099A1AAA1BBA18C159D05AE05BF0568F57D
:102B600081E01827612F88E00E940C0188E392E041
:102B70000E94F20E4AE068A179A18AA19BA10E945D
:102B8000310E8AE591E00E94240E88E592E00E94D1
:102B9000F20E812F90E00E94DA0E8091ED04909168
:102BA000EE04059789F668E873E180E090E00E9402
:102BB0009B01CACF7301620131CE82E00E94E30023
:102BC000892B09F053C00E94CD012B013C0182E703
:102BD00092E00E94F20E4AE0C701B6010E94310E57
:102BE00089E892E00E94F20EC301B2012CA13DA13E
:102BF0004EA15FA1621B730B840B950B4AE00E94F0
:102C0000310E8AE591E00E94240E81E01827612FA1
:102C100088E00E940C0168EB7BE080E090E00E947D
:102C20009B010E94CD016CA37DA38EA39FA382E094
:102C30000E94E300892B79F461E089E00E940C0195
:102C4000C4010E946B0160E089E00E940C01C40194
:102C50000E946B01ECCF8EE992E00E94F20E812F70
:102C600090E00E94DA0EC12CD12C760161E089E05F
:102C70000E940C01C4010E946B0160E089E00E9487
:102C80000C01C4010E946B013FEFC31AD30AE30A8F
:102C9000F30A8091ED049091EE048D7F019781F409
:102CA000C701B60122E330E040E050E00E949D1AE7
:102CB000672B682B692B21F48BEB92E00E94F20EBC
:102CC0008091ED049091EE040497029780F4C7017F
:102CD000B60120E137E240E050E00E949D1A672BE8
:102CE000682B692B21F48BEB92E00E94F20E80910D
:102CF000ED049091EE04029709F029CFC701B601C7
:102D000028EE33E040E050E00E949D1A672B682BCC
:102D1000692B09F01CCF8BEB92E00E94F20E17CFCB
:102D20000E94CD016093A0037093A1038093A2033E
:102D30009093A30300919C0310919D0320919E0307
:102D400030919F03601B710B820B930B69387341A9
:102D500081059105A0F083EB92E00E94A70E80917F
:102D6000A0039091A103A091A203B091A30380932B
:102D70009C0390939D03A0939E03B0939F03809127
:102D80009B03882309F4CEC010929B0390E080E05F
:102D90002091B6042817190689F084F00196F8CF1F
:102DA000803A09F442C0803EE9F58EE090E002C02E
:102DB00084E090E09093C3048093C2048091B604B1
:102DC000882309F4ABC0E091BD048091B604E817F4
:102DD00008F0A4C081E08E0F8093BD04F0E0EA5AB1
:102DE000FB4F9081E091DA0481E08E0F8093DA044A
:102DF000F0E0E054FB4F90872091C00421111EC0E9
:102E00008130E1F68093C0048091C804982F9F70B0
:102E10009093C104807F803871F010F6803441F2C5
:102E2000803631F080E190E0C5CF8AE090E0C2CFFB
:102E300086E090E0BFCF88E090E0BCCF823059F4CC
:102E40008091C904982F92959F709093C5048F70BC
:102E50008093C604B3CF833011F41092C7048091DD
:102E6000C104882321F0E091C7048E134EC09093D3
:102E7000C404CE0101960E94FE0BCE0101960E9471
:102E8000FE0B8DEB92E00E94F20E6091C804CE0121
:102E900001960E94BB0B8091C8040E94A00E80EA9C
:102EA00091E00E94F20E6091C904CE0101960E9449
:102EB000BB0B8091C9040E94A00E80EA91E00E94A1
:102EC000F20E86EC92E00E94F20EECED2E2EE4E083
:102ED0003E2E10E000E08091C1048017110609F039
:102EE0000CF43CC0D1016D911D01CE0101960E94F0
:102EF000BB0BF101319780810E94A00E80EA91E026
:102F00000E94F20E0F5F1F4FE6CF81E08E0F80937D
:102F1000C704F0E0E054FB4F948F50CF1092BD04F3
:102F20001092B60480919A03811110929A038091B5
:102F30009903811110929903809198038111109245
:102F4000980380E090E0892B09F42ACC0E94860245
:102F5000882309F425CC0E94000022CC86EC92E064
:102F60000E94F20E8091C4040E94A00E89EC92E0AF
:102F70000E94A70E8AE890E00E94DA0ECE01019628
:102F80000E949B0B9091C404891701F18CE890E09A
:102F90000E94DA0E8BEC92E00E94F20E8091C40443
:102FA0000E94A00E8BED92E00E94F20ECE010196DF
:102FB0000E949B0B0E94A00E8AE591E00E94240EC5
:102FC0000E948C0080E00E94790AF8CE8091C204B1
:102FD0009091C3048430910509F089C085E990E09F
:102FE0000E94DA0E8091C5048093BF0481E00E94A4
:102FF000790A8091C2049091C3048830910509F444
:103000009CC108F00BC18430910509F43CC10697BE
:10301000B9F6CE0101960E94FE0B81E08F838A8172
:103020008C83188619861A861B8684E780939604FB
:103030008091BF0400E1809FC001112488608093CB
:10304000970460919604CE0101960E94BB0B60919B
:103050009704CE0101960E94BB0BE091EB04F09126
:10306000EC0486899789A08DB18D4B2F5527662753
:10307000772740939804AD01772757FD7095672F08
:1030800040939904492F5A2F6B2F772767FD7A9524
:1030900040939A0480939B0460919804CE0101961A
:1030A0000E94BB0B60919904CE0101960E94BB0B5C
:1030B00060919A04CE0101960E94BB0B60919B0423
:1030C000CE0101960E94BB0BCE0101960E949B0B84
:1030D00080939C0427E030E040E050E02093B80467
:1030E0003093B9044093BA045093BB0469CF86303F
:1030F000910519F48AE990E073CF8830910579F54C
:103100008FE990E00E94DA0E8091C604817088A356
:103110006091DC047091DD048091DE049091DF0405
:103120000E94BF1A6B017C016091E0047091E10480
:103130008091E2049091E3040E94BF1A4B015C016C
:103140006091E4047091E5048091E6049091E704B5
:103150000E94BF1A6CA37DA38EA39FA343CF8A3086
:10316000910539F588EA90E00E94DA0E8091C60454
:10317000B82FB170B8A3C12CD12C760180FD0CC042
:103180006091DC047091DD048091DE049091DF0495
:103190000E94BF1A6B017C016091E0047091E10410
:1031A0008091E2049091E3040E94BF1A4B015C01FC
:1031B00019CF03E010E00E9771F483EB90E00E94CA
:1031C000DA0E8091C604982F9370933021F181FF1D
:1031D00009CF18A207CF8091C8040E94A00E80EAF0
:1031E00091E00E94F20E01501109A9F78CE591E0DF
:1031F0000E94A70E8091C2049091C3040E94DA0E2F
:103200008091C2049091C3040E94DA0E83EC90E096
:103210000E94DA0ED5CEE1E0E8A3E4CE8A30910533
:1032200009F4F8C00E9709F0CBCECE0145960E9466
:10323000FE0B81E08B8F8E89888F1C8E1D8E1E8EDB
:103240001F8E80E5809396048091BF04F0E18F9FEC
:10325000C001112488608093970408A160E00023D6
:1032600031F0809197048F5F8093970461E087E04D
:103270000E940C01CE0101960E94FE0BCE01019628
:103280000E94FE0B25C161E083E00E943A0160E0EC
:1032900083E00E940C0160E085E00E940C018BE855
:1032A00091E00197F1F7CE0101960E94FE0B81E0BB
:1032B0008F838A818C83188619861A861B8680E5FF
:1032C000809396048091BF04F0E18F9FC001112488
:1032D000886080939704809197048160809397041D
:1032E0008091970482608093970460919604CE0148
:1032F00001960E94BB0B60919704CE0101960E943B
:10330000BB0BCE0101960E949B0B809398044092C8
:10331000B8045092B9046092BA047092BB0460E0A1
:1033200083E00E943A0180E00E94790A60E085E033
:103330000E940C010E948C0041CDE091EB04F091C1
:10334000EC0438A1328FE091EB04F091EC04C38ED1
:10335000D48EE58EF68EE091EB04F091EC04D5016D
:10336000C401AA27BB27878F90A3A1A3B2A3E09192
:10337000EB04F091EC048CA19DA1AEA1BFA1AA2702
:10338000BB2783A394A3A5A3B6A3CE0101960E9455
:10339000FE0B81E08F838A818C83188619861A86BA
:1033A0001B8640E9409396048091BF0450E1859FBD
:1033B000C00111248C608093970460919604CE0123
:1033C00001960E94BB0B60919704CE0101960E946A
:1033D000BB0BCE0101960E949B0B809398044092F8
:1033E000B8045092B9046092BA047092BB040E946F
:1033F0008C0080E00E94790A89ED91E090930801A9
:103400008093070180916900837F886080936900C1
:10341000E99AD4CC60E087E00E940C01E091EB04D3
:10342000F091EC0498A1992309F46DC026813781AD
:10343000C901959587958E0F9F1F0480F581E02D1A
:1034400020FF08C0DC012D913C91E20FF31F019099
:10345000F081E02DB501A4010995CE0101960E94ED
:10346000FE0B81E08F838A818C83188619861A86E9
:103470001B86B0EBB09396048091BF04E0E18E9F71
:10348000C001112480939704E091EB04F091EC04C7
:1034900086A5882329F0809197048F5F80939704F5
:1034A00087A5882329F0809197048E5F80939704E5
:1034B00080A9882329F0809197048C5F80939704DA
:1034C00081A9882329F080919704885F80939704CD
:1034D00060919604CE0101960E94BB0B6091970407
:1034E000CE0101960E94BB0BCE0101960E949B0B60
:1034F000809398044092B8045092B9046092BA0440
:103500007092BB045DCD22853385C9019595879561
:103510008E0F9F1F0084F185E02D20FF08C0DC0185
:103520002D913C91E20FF31F0190F081E02D950168
:103530008401B701A601099590CFA1E21A2EAA1B1A
:10354000BB1BFD010DC0AA1FBB1FEE1FFF1FA21753
:10355000B307E407F50720F0A21BB30BE40BF50B50
:10356000661F771F881F991F1A9469F760957095D9
:10357000809590959B01AC01BD01CF01089569270D
:103580009627692778278727782708950E94D71AD2
:10359000A59F900DB49F900DA49F800D911D1124A7
:1035A0000895EE0FFF1F0590F491E02D0994A29F5E
:1035B000B001B39FC001A39F700D811D1124911D07
:1035C000B29F700D811D1124911D08955058BB2785
:1035D000AA270E94FE1A0C94DD1B0E94CF1B38F014
:1035E0000E94D61B20F039F49F3F19F426F40C9466
:1035F000CC1B0EF4E095E7FB0C94C61BE92F0E9450
:10360000EE1B58F3BA17620773078407950720F07B
:1036100079F4A6F50C94101C0EF4E0950B2EBA2F3D
:10362000A02D0B01B90190010C01CA01A0011124C8
:10363000FF27591B99F0593F50F4503E68F11A1674
:10364000F040A22F232F342F4427585FF3CF469505
:1036500037952795A795F0405395C9F77EF41F1627
:10366000BA0B620B730B840BBAF09150A1F0FF0FF1
:10367000BB1F661F771F881FC2F70EC0BA0F621FDD
:10368000731F841F48F4879577956795B795F795CD
:103690009E3F08F0B0CF9395880F08F09927EE0F62
:1036A0009795879508950E945A1B6894B1110C94C0
:1036B000111C08950E94F61B88F09F5798F0B92FAF
:1036C0009927B751B0F0E1F0660F771F881F991F57
:1036D0001AF0BA95C9F714C0B13091F00E94101CCD
:1036E000B1E008950C94101C672F782F8827B85FDD
:1036F00039F0B93FCCF3869577956795B395D9F7AF
:103700003EF490958095709561957F4F8F4F9F4FB8
:103710000895E89409C097FB3EF4909580957095C4
:1037200061957F4F8F4F9F4F9923A9F0F92F96E90D
:10373000BB279395F695879577956795B795F11182
:10374000F8CFFAF4BB0F11F460FF1BC06F5F7F4F1F
:103750008F4F9F4F16C0882311F096E911C0772331
:1037600021F09EE8872F762F05C0662371F096E83A
:10377000862F70E060E02AF09A95660F771F881F09
:10378000DAF7880F9695879597F9089597F99F67C7
:1037900080E870E060E008959FEF80EC08950024D9
:1037A0000A941616170618060906089500240A94A6
:1037B00012161306140605060895092E0394000C2C
:1037C00011F4882352F0BB0F40F4BF2B11F460FFBB
:1037D00004C06F5F7F4F8F4F9F4F089557FD9058E4
:1037E000440F551F59F05F3F71F04795880F97FBC5
:1037F000991F61F09F3F79F087950895121613067F
:103800001406551FF2CF4695F1DF08C016161706AD
:103810001806991FF1CF86957105610508940895E2
:10382000E894BB2766277727CB0197F90895F8948A
:02383000FFCFC8
:103832007F040000301B021B02060001000300028D
:1038420000020002000400050001000300E8033C3E
:1038520000E803C8003200DC0500007D00DC050042
:1038620090D00390D00300000000BC021C02490269
:1038720009037A0258026C0200000000A2039703B7
:10388200B303E40190037D036E030D0A005A6C61D9
:103892002066756B6E636A6120646F20484F4D45E8
:1038A200005A6C612066756B6E636A6120646F20DA
:1038B2004D4F56450046656220203120323032336A
:1038C2000031313A31313A30390041646472203D7D
:1038D2002000576F7A656B20476F72612F446F6CBF
:1038E2000052616D6965204C65776F2F5072617768
:1038F2006F0052616D696520476F72612F446F6C72
:1039020000546172637A612046696C747261005777
:103912006F7A656B204C65776F2F507261776F00FD
:103922004E69657A6E616E65004445425547204D89
:103932004F44450053544152540057737465706D9F
:1039420061206A617A6461207720646F6C2000577D
:10395200796B7279746F206B72616E636F776B6FC4
:10396200776B6520706F20004E69652077796B72E6
:1039720079746F206B72616E636F776B692E20535F
:1039820074657073203E20005A6D69656E69616DC1
:10399200206B696572756E656B206E612064697259
:1039A2003D000A57796B7279746F206B72616E6396
:1039B2006F776B6520706F2000206B726F6B616395
:1039C200682E20437A6173205B6D735D3D005A6DF2
:1039D20069616E61206B696572756E6B75206469D1
:1039E200723D00437A656B616D2E2E2E005061721E
:1039F200736520205B007C20005D00696E76616C3F
:103A020069642063726320286B2900213D2877298D
:023A12000000B2
:00000001FF
